{
  "address": "0x18E621B64d7808c3C47bccbbD7485d23F257D26f",
  "abi": [
    {
      "inputs": [
        {
          "internalType": "address",
          "name": "feeTo_",
          "type": "address"
        }
      ],
      "payable": false,
      "stateMutability": "nonpayable",
      "type": "constructor"
    },
    {
      "anonymous": false,
      "inputs": [
        {
          "indexed": true,
          "internalType": "address",
          "name": "prevOwner",
          "type": "address"
        },
        {
          "indexed": true,
          "internalType": "address",
          "name": "newOwner",
          "type": "address"
        }
      ],
      "name": "FeePercentOwnershipTransferred",
      "type": "event"
    },
    {
      "anonymous": false,
      "inputs": [
        {
          "indexed": true,
          "internalType": "address",
          "name": "prevFeeTo",
          "type": "address"
        },
        {
          "indexed": true,
          "internalType": "address",
          "name": "newFeeTo",
          "type": "address"
        }
      ],
      "name": "FeeToTransferred",
      "type": "event"
    },
    {
      "anonymous": false,
      "inputs": [
        {
          "indexed": false,
          "internalType": "uint256",
          "name": "prevOwnerFeeShare",
          "type": "uint256"
        },
        {
          "indexed": false,
          "internalType": "uint256",
          "name": "ownerFeeShare",
          "type": "uint256"
        }
      ],
      "name": "OwnerFeeShareUpdated",
      "type": "event"
    },
    {
      "anonymous": false,
      "inputs": [
        {
          "indexed": true,
          "internalType": "address",
          "name": "prevOwner",
          "type": "address"
        },
        {
          "indexed": true,
          "internalType": "address",
          "name": "newOwner",
          "type": "address"
        }
      ],
      "name": "OwnershipTransferred",
      "type": "event"
    },
    {
      "anonymous": false,
      "inputs": [
        {
          "indexed": true,
          "internalType": "address",
          "name": "token0",
          "type": "address"
        },
        {
          "indexed": true,
          "internalType": "address",
          "name": "token1",
          "type": "address"
        },
        {
          "indexed": false,
          "internalType": "address",
          "name": "pair",
          "type": "address"
        },
        {
          "indexed": false,
          "internalType": "uint256",
          "name": "length",
          "type": "uint256"
        }
      ],
      "name": "PairCreated",
      "type": "event"
    },
    {
      "anonymous": false,
      "inputs": [
        {
          "indexed": false,
          "internalType": "address",
          "name": "referrer",
          "type": "address"
        },
        {
          "indexed": false,
          "internalType": "uint256",
          "name": "prevReferrerFeeShare",
          "type": "uint256"
        },
        {
          "indexed": false,
          "internalType": "uint256",
          "name": "referrerFeeShare",
          "type": "uint256"
        }
      ],
      "name": "ReferrerFeeShareUpdated",
      "type": "event"
    },
    {
      "anonymous": false,
      "inputs": [
        {
          "indexed": true,
          "internalType": "address",
          "name": "prevOwner",
          "type": "address"
        },
        {
          "indexed": true,
          "internalType": "address",
          "name": "newOwner",
          "type": "address"
        }
      ],
      "name": "SetStableOwnershipTransferred",
      "type": "event"
    },
    {
      "constant": true,
      "inputs": [],
      "name": "OWNER_FEE_SHARE_MAX",
      "outputs": [
        {
          "internalType": "uint256",
          "name": "",
          "type": "uint256"
        }
      ],
      "payable": false,
      "stateMutability": "view",
      "type": "function"
    },
    {
      "constant": true,
      "inputs": [],
      "name": "REFERER_FEE_SHARE_MAX",
      "outputs": [
        {
          "internalType": "uint256",
          "name": "",
          "type": "uint256"
        }
      ],
      "payable": false,
      "stateMutability": "view",
      "type": "function"
    },
    {
      "constant": true,
      "inputs": [
        {
          "internalType": "uint256",
          "name": "",
          "type": "uint256"
        }
      ],
      "name": "allPairs",
      "outputs": [
        {
          "internalType": "address",
          "name": "",
          "type": "address"
        }
      ],
      "payable": false,
      "stateMutability": "view",
      "type": "function"
    },
    {
      "constant": true,
      "inputs": [],
      "name": "allPairsLength",
      "outputs": [
        {
          "internalType": "uint256",
          "name": "",
          "type": "uint256"
        }
      ],
      "payable": false,
      "stateMutability": "view",
      "type": "function"
    },
    {
      "constant": false,
      "inputs": [
        {
          "internalType": "address",
          "name": "tokenA",
          "type": "address"
        },
        {
          "internalType": "address",
          "name": "tokenB",
          "type": "address"
        }
      ],
      "name": "createPair",
      "outputs": [
        {
          "internalType": "address",
          "name": "pair",
          "type": "address"
        }
      ],
      "payable": false,
      "stateMutability": "nonpayable",
      "type": "function"
    },
    {
      "constant": true,
      "inputs": [],
      "name": "feeInfo",
      "outputs": [
        {
          "internalType": "uint256",
          "name": "_ownerFeeShare",
          "type": "uint256"
        },
        {
          "internalType": "address",
          "name": "_feeTo",
          "type": "address"
        }
      ],
      "payable": false,
      "stateMutability": "view",
      "type": "function"
    },
    {
      "constant": true,
      "inputs": [],
      "name": "feePercentOwner",
      "outputs": [
        {
          "internalType": "address",
          "name": "",
          "type": "address"
        }
      ],
      "payable": false,
      "stateMutability": "view",
      "type": "function"
    },
    {
      "constant": true,
      "inputs": [],
      "name": "feeTo",
      "outputs": [
        {
          "internalType": "address",
          "name": "",
          "type": "address"
        }
      ],
      "payable": false,
      "stateMutability": "view",
      "type": "function"
    },
    {
      "constant": true,
      "inputs": [
        {
          "internalType": "address",
          "name": "",
          "type": "address"
        },
        {
          "internalType": "address",
          "name": "",
          "type": "address"
        }
      ],
      "name": "getPair",
      "outputs": [
        {
          "internalType": "address",
          "name": "",
          "type": "address"
        }
      ],
      "payable": false,
      "stateMutability": "view",
      "type": "function"
    },
    {
      "constant": true,
      "inputs": [],
      "name": "owner",
      "outputs": [
        {
          "internalType": "address",
          "name": "",
          "type": "address"
        }
      ],
      "payable": false,
      "stateMutability": "view",
      "type": "function"
    },
    {
      "constant": true,
      "inputs": [],
      "name": "ownerFeeShare",
      "outputs": [
        {
          "internalType": "uint256",
          "name": "",
          "type": "uint256"
        }
      ],
      "payable": false,
      "stateMutability": "view",
      "type": "function"
    },
    {
      "constant": true,
      "inputs": [
        {
          "internalType": "address",
          "name": "",
          "type": "address"
        }
      ],
      "name": "referrersFeeShare",
      "outputs": [
        {
          "internalType": "uint256",
          "name": "",
          "type": "uint256"
        }
      ],
      "payable": false,
      "stateMutability": "view",
      "type": "function"
    },
    {
      "constant": false,
      "inputs": [
        {
          "internalType": "address",
          "name": "_feePercentOwner",
          "type": "address"
        }
      ],
      "name": "setFeePercentOwner",
      "outputs": [],
      "payable": false,
      "stateMutability": "nonpayable",
      "type": "function"
    },
    {
      "constant": false,
      "inputs": [
        {
          "internalType": "address",
          "name": "_feeTo",
          "type": "address"
        }
      ],
      "name": "setFeeTo",
      "outputs": [],
      "payable": false,
      "stateMutability": "nonpayable",
      "type": "function"
    },
    {
      "constant": false,
      "inputs": [
        {
          "internalType": "address",
          "name": "_owner",
          "type": "address"
        }
      ],
      "name": "setOwner",
      "outputs": [],
      "payable": false,
      "stateMutability": "nonpayable",
      "type": "function"
    },
    {
      "constant": false,
      "inputs": [
        {
          "internalType": "uint256",
          "name": "newOwnerFeeShare",
          "type": "uint256"
        }
      ],
      "name": "setOwnerFeeShare",
      "outputs": [],
      "payable": false,
      "stateMutability": "nonpayable",
      "type": "function"
    },
    {
      "constant": false,
      "inputs": [
        {
          "internalType": "address",
          "name": "referrer",
          "type": "address"
        },
        {
          "internalType": "uint256",
          "name": "referrerFeeShare",
          "type": "uint256"
        }
      ],
      "name": "setReferrerFeeShare",
      "outputs": [],
      "payable": false,
      "stateMutability": "nonpayable",
      "type": "function"
    },
    {
      "constant": false,
      "inputs": [
        {
          "internalType": "address",
          "name": "_setStableOwner",
          "type": "address"
        }
      ],
      "name": "setSetStableOwner",
      "outputs": [],
      "payable": false,
      "stateMutability": "nonpayable",
      "type": "function"
    },
    {
      "constant": true,
      "inputs": [],
      "name": "setStableOwner",
      "outputs": [
        {
          "internalType": "address",
          "name": "",
          "type": "address"
        }
      ],
      "payable": false,
      "stateMutability": "view",
      "type": "function"
    }
  ],
  "transactionHash": "0x2691384948536f1d1307bf74169bf1b13526901f2e75fe5215f1882acb909f2e",
  "args": [
    "0x01Bb7B44cc398AaA2b76Ac6253F0F5634279Db9D"
  ],
  "numDeployments": 1,
  "solcInputHash": "4e6353eba233f49791c0f885fe6fca26",
  "bytecode": "0x608060405261c35060045534801561001657600080fd5b50604051614b76380380614b768339818101604052602081101561003957600080fd5b505160008054336001600160a01b0319918216811783556001805483168217905560028054831682179055600380549092166001600160a01b038516179091556040519091907f8be0079c531659141344cd1fd0a4f28419497f9722a3daafe3b4186f6b6457e0908290a360405133906000907ff14fcb76f5835c1d416cc224ffc209c65749cede0d23fd6e6035d4dd1c2e0f8c908290a360405133906000907fabdd76bd5d5532d19d3e93704ac3544f45f03dc956b39995d3436d2d166855e5908290a36040516001600160a01b038216906000907f941bed5eb8a4f7abb41f1a8547c6b5fded98a6fbe47dbd60aee080690de5f0d5908290a350614a32806101446000396000f3fe608060405234801561001057600080fd5b50600436106100f15760003560e01c8063017e7e58146100f657806313af40351461011a5780631850bd76146101425780631e3dd18b1461015c5780634c21771514610179578063574f2ba31461018157806369c8b572146101895780637183d47c146101915780638692fa7d146101b75780638da5cb5b146101dd57806390fd0687146101e557806391b83178146101ed578063995b5aae1461020a578063c1cf3c7f14610233578063c9c653961461025f578063e6a439051461028d578063e93f6585146102bb578063f46901ed146102e1578063fc39026a14610307575b600080fd5b6100fe61030f565b604080516001600160a01b039092168252519081900360200190f35b6101406004803603602081101561013057600080fd5b50356001600160a01b031661031e565b005b61014a61040b565b60408051918252519081900360200190f35b6100fe6004803603602081101561017257600080fd5b5035610411565b6100fe610438565b61014a610447565b61014a61044d565b61014a600480360360208110156101a757600080fd5b50356001600160a01b0316610453565b610140600480360360208110156101cd57600080fd5b50356001600160a01b0316610465565b6100fe610553565b61014a610562565b6101406004803603602081101561020357600080fd5b5035610569565b610212610675565b604080519283526001600160a01b0390911660208301528051918290030190f35b6101406004803603604081101561024957600080fd5b506001600160a01b03813516906020013561068b565b6100fe6004803603604081101561027557600080fd5b506001600160a01b03813581169160200135166107d1565b6100fe600480360360408110156102a357600080fd5b506001600160a01b0381358116916020013516610b43565b610140600480360360208110156102d157600080fd5b50356001600160a01b0316610b69565b610140600480360360208110156102f757600080fd5b50356001600160a01b0316610c57565b6100fe610cfc565b6003546001600160a01b031681565b6000546001600160a01b031633146103675760405162461bcd60e51b815260040180806020018281038252602781526020018061496c6027913960400191505060405180910390fd5b6001600160a01b0381166103b0576040805162461bcd60e51b815260206004820152601c602482015260008051602061492a833981519152604482015290519081900360640190fd5b600080546040516001600160a01b03808516939216917f8be0079c531659141344cd1fd0a4f28419497f9722a3daafe3b4186f6b6457e091a3600080546001600160a01b0319166001600160a01b0392909216919091179055565b614e2081565b6007818154811061041e57fe5b6000918252602090912001546001600160a01b0316905081565b6001546001600160a01b031681565b60075490565b60045481565b60056020526000908152604090205481565b6002546001600160a01b031633146104ae5760405162461bcd60e51b815260040180806020018281038252602281526020018061494a6022913960400191505060405180910390fd5b6001600160a01b0381166104f7576040805162461bcd60e51b815260206004820152601c602482015260008051602061492a833981519152604482015290519081900360640190fd5b6002546040516001600160a01b038084169216907fabdd76bd5d5532d19d3e93704ac3544f45f03dc956b39995d3436d2d166855e590600090a3600280546001600160a01b0319166001600160a01b0392909216919091179055565b6000546001600160a01b031681565b620186a081565b6000546001600160a01b031633146105b25760405162461bcd60e51b815260040180806020018281038252602781526020018061496c6027913960400191505060405180910390fd5b600081116105f15760405162461bcd60e51b81526004018080602001828103825260348152602001806148f66034913960400191505060405180910390fd5b620186a08111156106335760405162461bcd60e51b81526004018080602001828103825260348152602001806149936034913960400191505060405180910390fd5b600454604080519182526020820183905280517fd739f5afb7778b0c4f4e62b13ac0a94ccc1556dbcb8dc2d0b907daed378e1e239281900390910190a1600455565b60045460035490916001600160a01b0390911690565b6000546001600160a01b031633146106d45760405162461bcd60e51b815260040180806020018281038252602781526020018061496c6027913960400191505060405180910390fd5b6001600160a01b03821661071d576040805162461bcd60e51b815260206004820152601c602482015260008051602061492a833981519152604482015290519081900360640190fd5b614e2081111561075e5760405162461bcd60e51b81526004018080602001828103825260378152602001806149c76037913960400191505060405180910390fd5b6001600160a01b03821660008181526005602090815260409182902054825193845290830152818101839052517f4deb2bb31aaa8475916c8556f3e3287795da71076b7419d627eeef223b7dcc589181900360600190a16001600160a01b03909116600090815260056020526040902055565b6000816001600160a01b0316836001600160a01b031614156108245760405162461bcd60e51b81526004018080602001828103825260238152602001806148d36023913960400191505060405180910390fd5b600080836001600160a01b0316856001600160a01b03161061084757838561084a565b84845b90925090506001600160a01b0382166108a9576040805162461bcd60e51b815260206004820152601c60248201527b43616d656c6f74466163746f72793a205a45524f5f4144445245535360201b604482015290519081900360640190fd5b6001600160a01b03828116600090815260066020908152604080832085851684529091529020541615610921576040805162461bcd60e51b815260206004820152601b60248201527a43616d656c6f74466163746f72793a20504149525f45584953545360281b604482015290519081900360640190fd5b60606040518060200161093390610d0b565b6020820181038252601f19601f8201166040525090506000838360405160200180836001600160a01b03166001600160a01b031660601b8152601401826001600160a01b03166001600160a01b031660601b815260140192505050604051602081830303815290604052805190602001209050808251602084016000f594506001600160a01b038516610a06576040805162461bcd60e51b815260206004820152601660248201527510d85b595b1bdd119858dd1bdc9e4e8811905253115160521b604482015290519081900360640190fd5b6040805163485cc95560e01b81526001600160a01b038681166004830152858116602483015291519187169163485cc9559160448082019260009290919082900301818387803b158015610a5957600080fd5b505af1158015610a6d573d6000803e3d6000fd5b505050506001600160a01b0384811660008181526006602081815260408084208987168086529083528185208054978d166001600160a01b031998891681179091559383528185208686528352818520805488168517905560078054600181018255958190527fa66cc928b5edb82af9bd49922954155ab7b0942694bea4ce44661d9a8736c68890950180549097168417909655925483519283529082015281517f0d3648bd0f6ba80134a33ba9275ac585d9d315f0ad8355cddefde31afa28d0e9929181900390910190a35050505092915050565b60066020908152600092835260408084209091529082529020546001600160a01b031681565b6000546001600160a01b03163314610bb25760405162461bcd60e51b815260040180806020018281038252602781526020018061496c6027913960400191505060405180910390fd5b6001600160a01b038116610bfb576040805162461bcd60e51b815260206004820152601c602482015260008051602061492a833981519152604482015290519081900360640190fd5b6001546040516001600160a01b038084169216907ff14fcb76f5835c1d416cc224ffc209c65749cede0d23fd6e6035d4dd1c2e0f8c90600090a3600180546001600160a01b0319166001600160a01b0392909216919091179055565b6000546001600160a01b03163314610ca05760405162461bcd60e51b815260040180806020018281038252602781526020018061496c6027913960400191505060405180910390fd5b6003546040516001600160a01b038084169216907f941bed5eb8a4f7abb41f1a8547c6b5fded98a6fbe47dbd60aee080690de5f0d590600090a3600380546001600160a01b0319166001600160a01b0392909216919091179055565b6002546001600160a01b031681565b613bba80610d198339019056fe60806040526008805461ffff60e01b1916604b60e21b176001600160f01b0316604b60f21b1790556001600d5534801561003857600080fd5b506040514690806052613b688239604080519182900360520182208282018252600a835269043616d656c6f74204c560b41b6020938401528151808301835260018152603160f81b908401528151808401919091527fd76c82bc6723d724b871e570045a7319276e62ab33aa5923ccca28a79bbf7411818301527fc89efdaa54c0f20c7adf612882df0950f5a951637e0307cdcb4c672f298b8bc6606082015260808101949094523060a0808601919091528151808603909101815260c09094019052825192019190912060035550600580546001600160a01b03191633179055613a40806101286000396000f3fe608060405234801561001057600080fd5b50600436106101d85760003560e01c8063022c0d9f146101dd57806306fdde03146102695780630902f1ac146102e6578063095ea7b3146103245780630dfe168114610364578063158ef93e1461038857806318160ddd1461039057806323b872dd146103aa578063288e5d02146103e05780632fcd1692146103e85780633029e5d41461040757806330adf81f1461043d578063313ce567146104455780633644e515146104635780633b9f1dc01461046b5780633ba1707714610473578063485cc9551461047b57806348e5d260146104a957806362ecec03146104d257806367d81740146104da5780636a627842146104e25780636e1fdd7f1461050857806370a082311461059b5780637464fc3d146105c15780637ecebe00146105c957806389afcb44146105ef57806395d89b411461062e5780639e548b7f14610636578063a9059cbb1461063e578063b6200b071461066a578063ba9a7a5614610672578063bc25cf771461067a578063c45a0155146106a0578063d21220a7146106a8578063d505accf146106b0578063d73792a914610701578063dd62ed3e14610709578063f140a35a14610737578063f39ac11f14610763578063fff6cae914610791575b600080fd5b610267600480360360808110156101f357600080fd5b8135916020810135916001600160a01b036040830135169190810190608081016060820135600160201b81111561022957600080fd5b82018360208201111561023b57600080fd5b803590602001918460018302840111600160201b8311171561025c57600080fd5b509092509050610799565b005b61027161083a565b6040805160208082528351818301528351919283929083019185019080838360005b838110156102ab578181015183820152602001610293565b50505050905090810190601f1680156102d85780820380516001836020036101000a031916815260200191505b509250505060405180910390f35b6102ee610860565b604080516001600160701b03958616815293909416602084015261ffff9182168385015216606082015290519081900360800190f35b6103506004803603604081101561033a57600080fd5b506001600160a01b038135169060200135610893565b604080519115158252519081900360200190f35b61036c6108aa565b604080516001600160a01b039092168252519081900360200190f35b6103506108b9565b6103986108c9565b60408051918252519081900360200190f35b610350600480360360608110156103c057600080fd5b506001600160a01b038135811691602081013590911690604001356108cf565b610398610994565b6103f061099a565b6040805161ffff9092168252519081900360200190f35b6102676004803603606081101561041d57600080fd5b5080351515906001600160701b03602082013581169160400135166109ab565b610398610c8f565b61044d610ca1565b6040805160ff9092168252519081900360200190f35b610398610ca6565b610398610cac565b610267610cb2565b6102676004803603604081101561049157600080fd5b506001600160a01b0381358116916020013516610e4f565b610267600480360360408110156104bf57600080fd5b5061ffff81358116916020013516610fe3565b6103f0611208565b610398611219565b610398600480360360208110156104f857600080fd5b50356001600160a01b031661121f565b610267600480360360a081101561051e57600080fd5b8135916020810135916001600160a01b036040830135169190810190608081016060820135600160201b81111561055457600080fd5b82018360208201111561056657600080fd5b803590602001918460018302840111600160201b8311171561058757600080fd5b9193509150356001600160a01b031661151e565b610398600480360360208110156105b157600080fd5b50356001600160a01b03166115c2565b6103986115d4565b610398600480360360208110156105df57600080fd5b50356001600160a01b03166115da565b6106156004803603602081101561060557600080fd5b50356001600160a01b03166115ec565b6040805192835260208301919091528051918290030190f35b610271611985565b6103506119a8565b6103506004803603604081101561065457600080fd5b506001600160a01b0381351690602001356119b1565b6103506119be565b6103986119cc565b6102676004803603602081101561069057600080fd5b50356001600160a01b03166119d2565b61036c611b60565b61036c611b6f565b610267600480360360e08110156106c657600080fd5b506001600160a01b03813581169160208101359091169060408101359060608101359060ff6080820135169060a08101359060c00135611b7e565b610398611d6d565b6103986004803603604081101561071f57600080fd5b506001600160a01b0381358116916020013516611d74565b6103986004803603604081101561074d57600080fd5b50803590602001356001600160a01b0316611d91565b6102676004803603604081101561077957600080fd5b506001600160a01b0381358116916020013516611e01565b610267612052565b6107a161376b565b5060408051610100810182526006546001600160a01b039081168252600754166020808301919091528183018890526060820187905260006080830181905260a0830181905260c0830181905260e08301528251601f8501829004820281018201909352838352909161083291839187918790879081908401838280828437600092018290525092506121f0915050565b505050505050565b6040518060400160405280600a815260200169043616d656c6f74204c560b41b81525081565b6008546001600160701b0380821692600160701b83049091169161ffff600160e01b8204811692600160f01b9092041690565b60006108a0338484612ba3565b5060015b92915050565b6006546001600160a01b031681565b600754600160a01b900460ff1681565b60005481565b6001600160a01b03831660009081526002602090815260408083203384529091528120546000191461097e576001600160a01b038416600090815260026020908152604080832033845290915281205461092f908463ffffffff612bf316565b6001600160a01b038616600081815260026020908152604080832033808552908352928190208590558051858152905194955091936000805160206139988339815191529281900390910190a3505b610989848484612c43565b5060015b9392505050565b600a5481565b600854600160f01b900461ffff1681565b600d546001146109f0576040805162461bcd60e51b815260206004820152601360248201526000805160206138c4833981519152604482015290519081900360640190fd5b6000600d5560055460408051637e1c813560e11b815290516001600160a01b039092169163fc39026a91600480820192602092909190829003018186803b158015610a3a57600080fd5b505afa158015610a4e573d6000803e3d6000fd5b505050506040513d6020811015610a6457600080fd5b50516001600160a01b03163314610aac5760405162461bcd60e51b815260040180806020018281038252602a8152602001806139e2602a913960400191505060405180910390fd5b600c54610100900460ff1615610b02576040805162461bcd60e51b815260206004820152601660248201527543616d656c6f74506169723a20696d6d757461626c6560501b604482015290519081900360640190fd5b600c5460ff1615158315151415610b59576040805162461bcd60e51b815260206004820152601660248201527543616d656c6f74506169723a206e6f2075706461746560501b604482015290519081900360640190fd5b6008546001600160701b038381169116148015610b8a57506008546001600160701b03828116600160701b90920416145b610bd1576040805162461bcd60e51b815260206004820152601360248201527210d85b595b1bdd14185a5c8e8819985a5b1959606a1b604482015290519081900360640190fd5b600854600090610bf4906001600160701b0380821691600160701b900416612ceb565b600c546040805160ff90921615158252861515602083015280519293507fb6a86710bde53aa7fb1b3856279e2af5b476d53e2dd0902cf17a0911b5a43a8b92918290030190a1600c805460ff191685158015919091179091558490610c565750805b610c61576000610c81565b600854610c81906001600160701b0380821691600160701b900416612ea4565b600b5550506001600d555050565b60008051602061397883398151915281565b601281565b60035481565b60095481565b600d54600114610cf7576040805162461bcd60e51b815260206004820152601360248201526000805160206138c4833981519152604482015290519081900360640190fd5b6000600d5560055460408051638da5cb5b60e01b815290516001600160a01b0390921691638da5cb5b91600480820192602092909190829003018186803b158015610d4157600080fd5b505afa158015610d55573d6000803e3d6000fd5b505050506040513d6020811015610d6b57600080fd5b50516001600160a01b03163314610db35760405162461bcd60e51b81526004018080602001828103825260218152602001806138a36021913960400191505060405180910390fd5b600c54610100900460ff1615610e10576040805162461bcd60e51b815260206004820152601e60248201527f43616d656c6f74506169723a20616c726561647920696d6d757461626c650000604482015290519081900360640190fd5b600c805461ff0019166101001790556040517f09122c41ae733a4d7740324d50e35fbd6ee85be3c1312a45596d8045150ab2f290600090a16001600d55565b6005546001600160a01b031633148015610e735750600754600160a01b900460ff16155b610ebd576040805162461bcd60e51b815260206004820152601660248201527521b0b6b2b637ba2830b4b91d102327a92124a22222a760511b604482015290519081900360640190fd5b600680546001600160a01b038085166001600160a01b0319928316811790935560078054918516919092161790556040805163313ce56760e01b8152905163313ce56791600480820192602092909190829003018186803b158015610f2157600080fd5b505afa158015610f35573d6000803e3d6000fd5b505050506040513d6020811015610f4b57600080fd5b505160ff16600a0a6009556040805163313ce56760e01b815290516001600160a01b0383169163313ce567916004808301926020929190829003018186803b158015610f9657600080fd5b505afa158015610faa573d6000803e3d6000fd5b505050506040513d6020811015610fc057600080fd5b505160ff16600a90810a905550506007805460ff60a01b1916600160a01b179055565b600d54600114611028576040805162461bcd60e51b815260206004820152601360248201526000805160206138c4833981519152604482015290519081900360640190fd5b6000600d5560055460408051634c21771560e01b815290516001600160a01b0390921691634c21771591600480820192602092909190829003018186803b15801561107257600080fd5b505afa158015611086573d6000803e3d6000fd5b505050506040513d602081101561109c57600080fd5b50516001600160a01b031633146110e45760405162461bcd60e51b815260040180806020018281038252602a81526020018061392e602a913960400191505060405180910390fd5b6107d08261ffff161115801561110057506107d08161ffff1611155b61113b5760405162461bcd60e51b81526004018080602001828103825260328152602001806138196032913960400191505060405180910390fd5b60008261ffff16118015611153575060008161ffff16115b61118e5760405162461bcd60e51b81526004018080602001828103825260328152602001806138716032913960400191505060405180910390fd5b6008805461ffff60e01b1916600160e01b61ffff858116918202929092176001600160f01b0316600160f01b9285169283021790925560408051928352602083019190915280517fa4877b8ecb5a00ba277e4bceeeb187a669e7113649774dfbea05c259ce27f17b9281900390910190a150506001600d55565b600854600160e01b900461ffff1681565b6107d081565b6000600d54600114611266576040805162461bcd60e51b815260206004820152601360248201526000805160206138c4833981519152604482015290519081900360640190fd5b6000600d81905580611276610860565b5050600654604080516370a0823160e01b815230600482015290519395509193506000926001600160a01b03909116916370a08231916024808301926020929190829003018186803b1580156112cb57600080fd5b505afa1580156112df573d6000803e3d6000fd5b505050506040513d60208110156112f557600080fd5b5051600754604080516370a0823160e01b815230600482015290519293506000926001600160a01b03909216916370a0823191602480820192602092909190829003018186803b15801561134857600080fd5b505afa15801561135c573d6000803e3d6000fd5b505050506040513d602081101561137257600080fd5b505190506000611391836001600160701b03871663ffffffff612bf316565b905060006113ae836001600160701b03871663ffffffff612bf316565b905060006113bc8787612ceb565b60005490915080611405576113f16103e86113e56113e0878763ffffffff612fba16565b61301d565b9063ffffffff612bf316565b985061140060006103e861306f565b611454565b6114516001600160701b038916611422868463ffffffff612fba16565b8161142957fe5b046001600160701b038916611444868563ffffffff612fba16565b8161144b57fe5b046130f3565b98505b600089116114935760405162461bcd60e51b815260040180806020018281038252602a8152602001806137c3602a913960400191505060405180910390fd5b61149d8a8a61306f565b6114a78686613109565b81156114d1576008546114cd906001600160701b0380821691600160701b900416612ea4565b600b555b6040805185815260208101859052815133927f4c209b5fc8ad50758f13e2e1088ba56a560dff690a1c6fef26394f4c03821c4f928290030190a250506001600d5550949695505050505050565b61152661376b565b5060408051610100810182526006546001600160a01b039081168252600754166020808301919091528183018990526060820188905260006080830181905260a0830181905260c0830181905260e08301528251601f860182900482028101820190935284835290916115b9918391889188908890819084018382808284376000920191909152508892506121f0915050565b50505050505050565b60016020526000908152604090205481565b600b5481565b60046020526000908152604090205481565b600080600d54600114611634576040805162461bcd60e51b815260206004820152601360248201526000805160206138c4833981519152604482015290519081900360640190fd5b6000600d81905580611644610860565b5050600654600754604080516370a0823160e01b815230600482015290519496509294506001600160a01b039182169391169160009184916370a08231916024808301926020929190829003018186803b1580156116a157600080fd5b505afa1580156116b5573d6000803e3d6000fd5b505050506040513d60208110156116cb57600080fd5b5051604080516370a0823160e01b815230600482015290519192506000916001600160a01b038516916370a08231916024808301926020929190829003018186803b15801561171957600080fd5b505afa15801561172d573d6000803e3d6000fd5b505050506040513d602081101561174357600080fd5b5051306000908152600160205260408120549192506117628888612ceb565b60005490915080611779848763ffffffff612fba16565b8161178057fe5b049a5080611794848663ffffffff612fba16565b8161179b57fe5b04995060008b1180156117ae575060008a115b6117e95760405162461bcd60e51b815260040180806020018281038252602a8152602001806139b8602a913960400191505060405180910390fd5b6117f330846131e8565b6117fe878d8d613274565b611809868d8c613274565b604080516370a0823160e01b815230600482015290516001600160a01b038916916370a08231916024808301926020929190829003018186803b15801561184f57600080fd5b505afa158015611863573d6000803e3d6000fd5b505050506040513d602081101561187957600080fd5b5051604080516370a0823160e01b815230600482015290519196506001600160a01b038816916370a0823191602480820192602092909190829003018186803b1580156118c557600080fd5b505afa1580156118d9573d6000803e3d6000fd5b505050506040513d60208110156118ef57600080fd5b505193506118fd8585613109565b811561192757600854611923906001600160701b0380821691600160701b900416612ea4565b600b555b604080518c8152602081018c905281516001600160a01b038f169233927fdccd412f0b1252819cb1fd330b93224ca42612892bb3f4f789976e6d81936496929081900390910190a35050505050505050506001600d81905550915091565b604051806040016040528060078152602001660434d4c542d4c560cc1b81525081565b600c5460ff1681565b60006108a0338484612c43565b600c54610100900460ff1681565b6103e881565b600d54600114611a17576040805162461bcd60e51b815260206004820152601360248201526000805160206138c4833981519152604482015290519081900360640190fd5b6000600d55600654600754600854604080516370a0823160e01b815230600482015290516001600160a01b039485169490931692611ac69285928792611ac1926001600160701b03169185916370a0823191602480820192602092909190829003018186803b158015611a8957600080fd5b505afa158015611a9d573d6000803e3d6000fd5b505050506040513d6020811015611ab357600080fd5b50519063ffffffff612bf316565b613274565b600854604080516370a0823160e01b81523060048201529051611b2d9284928792611ac192600160701b90046001600160701b0316916001600160a01b038616916370a0823191602480820192602092909190829003018186803b158015611a8957600080fd5b6040517f21ad22495c9c75cd1c94756f91824e779c0c8a8e168b267c790df464fe056b7990600090a150506001600d5550565b6005546001600160a01b031681565b6007546001600160a01b031681565b42841015611bc8576040805162461bcd60e51b8152602060048201526012602482015271155b9a5cddd85c158c8e881156141254915160721b604482015290519081900360640190fd5b6003546001600160a01b0380891660008181526004602090815260408083208054600180820190925582516000805160206139788339815191528186015280840196909652958d166060860152608085018c905260a085019590955260c08085018b90528151808603909101815260e08501825280519083012061190160f01b6101008601526101028501969096526101228085019690965280518085039096018652610142840180825286519683019690962095839052610162840180825286905260ff89166101828501526101a284018890526101c28401879052519193926101e280820193601f1981019281900390910190855afa158015611cd1573d6000803e3d6000fd5b5050604051601f1901519150506001600160a01b03811615801590611d075750886001600160a01b0316816001600160a01b0316145b611d57576040805162461bcd60e51b815260206004820152601c60248201527b556e697377617056323a20494e56414c49445f5349474e415455524560201b604482015290519081900360640190fd5b611d62898989612ba3565b505050505050505050565b620186a081565b600260209081526000928352604080842090915290825290205481565b60065460009081906001600160a01b03848116911614611dbe57600854600160f01b900461ffff16611dcd565b600854600160e01b900461ffff165b600854909150611df990859085906001600160701b0380821691600160701b90041661ffff8616613409565b949350505050565b600d54600114611e46576040805162461bcd60e51b815260206004820152601360248201526000805160206138c4833981519152604482015290519081900360640190fd5b6000600d5560055460408051638da5cb5b60e01b815290516001600160a01b0390921691638da5cb5b91600480820192602092909190829003018186803b158015611e9057600080fd5b505afa158015611ea4573d6000803e3d6000fd5b505050506040513d6020811015611eba57600080fd5b50516001600160a01b03163314611f025760405162461bcd60e51b81526004018080602001828103825260218152602001806138a36021913960400191505060405180910390fd5b6006546001600160a01b03838116911614801590611f2e57506007546001600160a01b03838116911614155b611f7c576040805162461bcd60e51b815260206004820152601a60248201527921b0b6b2b637ba2830b4b91d1034b73b30b634b2103a37b5b2b760311b604482015290519081900360640190fd5b6120088282846001600160a01b03166370a08231306040518263ffffffff1660e01b815260040180826001600160a01b03166001600160a01b0316815260200191505060206040518083038186803b158015611fd757600080fd5b505afa158015611feb573d6000803e3d6000fd5b505050506040513d602081101561200157600080fd5b5051613274565b604080516001600160a01b0383811682529151918416917f368a9dc863ecb94b5ba32a682e26295b10d9c2666fad7d785ebdf262c3c524139181900360200190a250506001600d55565b600d54600114612097576040805162461bcd60e51b815260206004820152601360248201526000805160206138c4833981519152604482015290519081900360640190fd5b6000600d819055600654604080516370a0823160e01b815230600482015290516001600160a01b03909216916370a0823191602480820192602092909190829003018186803b1580156120e957600080fd5b505afa1580156120fd573d6000803e3d6000fd5b505050506040513d602081101561211357600080fd5b5051600754604080516370a0823160e01b815230600482015290519293506000926001600160a01b03909216916370a0823191602480820192602092909190829003018186803b15801561216657600080fd5b505afa15801561217a573d6000803e3d6000fd5b505050506040513d602081101561219057600080fd5b5051905081158015906121a257508015155b6121dd5760405162461bcd60e51b815260040180806020018281038252602c8152602001806137ed602c913960400191505060405180910390fd5b6121e78282613109565b50506001600d55565b600d54600114612235576040805162461bcd60e51b815260206004820152601360248201526000805160206138c4833981519152604482015290519081900360640190fd5b6000600d556040840151151580612250575060008460600151115b61228b5760405162461bcd60e51b81526004018080602001828103825260278152602001806139076027913960400191505060405180910390fd5b600080600080612299610860565b9350935093509350836001600160701b031688604001511080156122c95750826001600160701b03168860600151105b6123045760405162461bcd60e51b81526004018080602001828103825260238152602001806138e46023913960400191505060405180910390fd5b87516001600160a01b03888116911614801590612337575087602001516001600160a01b0316876001600160a01b031614155b612382576040805162461bcd60e51b815260206004820152601760248201527643616d656c6f74506169723a20494e56414c49445f544f60481b604482015290519081900360640190fd5b60408801511561239f5761239f8860000151888a60400151613274565b6060880151156123bc576123bc8860200151888a60600151613274565b8551156124b657866001600160a01b03166310d1e85c338a604001518b606001518a6040518563ffffffff1660e01b815260040180856001600160a01b03166001600160a01b0316815260200184815260200183815260200180602001828103825283818151815260200191508051906020019080838360005b8381101561244e578181015183820152602001612436565b50505050905090810190601f16801561247b5780820380516001836020036101000a031916815260200191505b5095505050505050600060405180830381600087803b15801561249d57600080fd5b505af11580156124b1573d6000803e3d6000fd5b505050505b8751604080516370a0823160e01b815230600482015290516001600160a01b03909216916370a0823191602480820192602092909190829003018186803b15801561250057600080fd5b505afa158015612514573d6000803e3d6000fd5b505050506040513d602081101561252a57600080fd5b50516080890152602088810151604080516370a0823160e01b815230600482015290516001600160a01b03909216926370a0823192602480840193829003018186803b15801561257957600080fd5b505afa15801561258d573d6000803e3d6000fd5b505050506040513d60208110156125a357600080fd5b505160a0890152604088015160808901516000916001600160701b03871603106125ce5760006125e5565b8860400151856001600160701b0316038960800151035b905060008960600151856001600160701b0316038a60a001511161260a576000612621565b8960600151856001600160701b0316038a60a00151035b905060008211806126325750600081115b61266d5760405162461bcd60e51b815260040180806020018281038252602681526020018061384b6026913960400191505060405180910390fd5b620186a06126858361ffff871663ffffffff612fba16565b8161268c57fe5b0460c08b0152620186a06126aa8261ffff861663ffffffff612fba16565b816126b157fe5b0460e08b01526000806001600160a01b0389166126cf576000612749565b60055460408051631c60f51f60e21b81526001600160a01b038c8116600483015291519190921691637183d47c916024808301926020929190829003018186803b15801561271c57600080fd5b505afa158015612730573d6000803e3d6000fd5b505050506040513d602081101561274657600080fd5b50515b9050801561280e5783156127b4576402540be40061278161ffff8816612775878563ffffffff612fba16565b9063ffffffff612fba16565b8161278857fe5b0491506127a2828d60c00151612bf390919063ffffffff16565b60c08d01528b516127b4908a84613274565b821561280e576402540be4006127d861ffff8716612775868563ffffffff612fba16565b816127df57fe5b0491506127f9828d60e00151612bf390919063ffffffff16565b60e08d015260208c015161280e908a84613274565b600c5460ff16156129765760055460408051634cadad5760e11b8152815160009384936001600160a01b039091169263995b5aae9260048083019392829003018186803b15801561285e57600080fd5b505afa158015612872573d6000803e3d6000fd5b505050506040513d604081101561288857600080fd5b50805160209091015190925090506001600160a01b03811615612973576128bc82612775620186a08663ffffffff612bf316565b915085156129175766038d7ea4c680006128e461ffff8a16612775898663ffffffff612fba16565b816128eb57fe5b049350612905848f60c00151612bf390919063ffffffff16565b60c08f01528d51612917908286613274565b84156129735766038d7ea4c6800061293d61ffff8916612775888663ffffffff612fba16565b8161294457fe5b04935061295e848f60e00151612bf390919063ffffffff16565b60e08f015260208e0151612973908286613274565b50505b83156129f8578b51604080516370a0823160e01b815230600482015290516001600160a01b03909216916370a0823191602480820192602092909190829003018186803b1580156129c657600080fd5b505afa1580156129da573d6000803e3d6000fd5b505050506040513d60208110156129f057600080fd5b505160808d01525b8215612a78576020808d0151604080516370a0823160e01b815230600482015290516001600160a01b03909216926370a0823192602480840193829003018186803b158015612a4657600080fd5b505afa158015612a5a573d6000803e3d6000fd5b505050506040513d6020811015612a7057600080fd5b505160a08d01525b50506000612a978b60c001518c60800151612bf390919063ffffffff16565b90506000612ab68c60e001518d60a00151612bf390919063ffffffff16565b9050612ad4886001600160701b0316886001600160701b0316612ea4565b612ade8383612ea4565b1015612b22576040805162461bcd60e51b815260206004820152600e60248201526d43616d656c6f74506169723a204b60901b604482015290519081900360640190fd5b5050612b368a608001518b60a00151613109565b6040808b01516060808d0151835186815260208101869052808501939093529082015290516001600160a01b038b169133917fd78ad95fa46c994b6551d0da85fc275fe613ce37657fb8d5e3d130840159d8229181900360800190a350506001600d555050505050505050565b6001600160a01b03808416600081815260026020908152604080832094871680845294825291829020859055815185815291516000805160206139988339815191529281900390910190a3505050565b808203828111156108a4576040805162461bcd60e51b815260206004820152601560248201527464732d6d6174682d7375622d756e646572666c6f7760581b604482015290519081900360640190fd5b6001600160a01b038316600090815260016020526040902054612c6c908263ffffffff612bf316565b6001600160a01b038085166000908152600160205260408082209390935590841681522054612ca1908263ffffffff6135d716565b6001600160a01b03808416600081815260016020908152604091829020949094558051858152905191939287169260008051602061395883398151915292918290030190a3505050565b600c5460009060ff1615612d01575060006108a4565b60055460408051634cadad5760e11b8152815160009384936001600160a01b039091169263995b5aae9260048083019392829003018186803b158015612d4657600080fd5b505afa158015612d5a573d6000803e3d6000fd5b505050506040513d6040811015612d7057600080fd5b508051602090910151600b546001600160a01b038216158015965092945090925090612e8f578015612e8a576000612dbd6113e0886001600160701b0316886001600160701b0316612ea4565b90506000612dca8361301d565b905080821115612e87576000612e03606487612def620186a08363ffffffff612fba16565b81612df657fe5b049063ffffffff612bf316565b90506000612e2e6064612775612e1f878763ffffffff612bf316565b6000549063ffffffff612fba16565b90506000612e62612e4685606463ffffffff612fba16565b612e56878663ffffffff612fba16565b9063ffffffff6135d716565b90506000818381612e6f57fe5b0490508015612e8257612e82888261306f565b505050505b50505b612e9b565b8015612e9b576000600b555b50505092915050565b600c5460009060ff1615612faa57600954600090612ed085670de0b6b3a764000063ffffffff612fba16565b81612ed757fe5b0490506000600a54612efa670de0b6b3a764000086612fba90919063ffffffff16565b81612f0157fe5b0490506000670de0b6b3a7640000612f1f848463ffffffff612fba16565b81612f2657fe5b0490506000612f7c670de0b6b3a7640000612f47858063ffffffff612fba16565b81612f4e57fe5b04670de0b6b3a7640000612f68878063ffffffff612fba16565b81612f6f57fe5b049063ffffffff6135d716565b9050670de0b6b3a7640000612f97838363ffffffff612fba16565b81612f9e57fe5b049450505050506108a4565b61098d838363ffffffff612fba16565b6000811580612fd557505080820282828281612fd257fe5b04145b6108a4576040805162461bcd60e51b815260206004820152601460248201527364732d6d6174682d6d756c2d6f766572666c6f7760601b604482015290519081900360640190fd5b60006003821115613060575080600160028204015b8181101561305a5780915060028182858161304957fe5b04018161305257fe5b049050613032565b5061306a565b811561306a575060015b919050565b600054613082908263ffffffff6135d716565b60009081556001600160a01b0383168152600160205260409020546130ad908263ffffffff6135d716565b6001600160a01b03831660008181526001602090815260408083209490945583518581529351929391926000805160206139588339815191529281900390910190a35050565b6000818310613102578161098d565b5090919050565b6001600160701b03821180159061312757506001600160701b038111155b613170576040805162461bcd60e51b815260206004820152601560248201527443616d656c6f74506169723a204f564552464c4f5760581b604482015290519081900360640190fd5b600880546001600160701b0319166001600160701b03848116918217600160701b600160e01b031916600160701b9185169182021790925560408051918252602082019290925281517f1c411e9a96e071241c2f21f7726b17ae89e3cab4c78be50e062b03a9fffbbad1929181900390910190a15050565b6001600160a01b038216600090815260016020526040902054613211908263ffffffff612bf316565b6001600160a01b0383166000908152600160205260408120919091555461323e908263ffffffff612bf316565b60009081556040805183815290516001600160a01b03851691600080516020613958833981519152919081900360200190a35050565b60408051808201825260198152787472616e7366657228616464726573732c75696e743235362960381b60209182015281516001600160a01b0385811660248301526044808301869052845180840390910181526064909201845291810180516001600160e01b031663a9059cbb60e01b1781529251815160009460609489169392918291908083835b6020831061331d5780518252601f1990920191602091820191016132fe565b6001836020036101000a0380198251168184511680821785525050505050509050019150506000604051808303816000865af19150503d806000811461337f576040519150601f19603f3d011682016040523d82523d6000602084013e613384565b606091505b50915091508180156133b25750805115806133b257508080602001905160208110156133af57600080fd5b50515b613402576040805162461bcd60e51b815260206004820152601c60248201527b10d85b595b1bdd14185a5c8e881514905394d1915497d1905253115160221b604482015290519081900360640190fd5b5050505050565b600c5460009060ff161561354c57613444620186a061342e888563ffffffff612fba16565b8161343557fe5b8891900463ffffffff612bf316565b955060006134528585612ea4565b905060095485670de0b6b3a7640000028161346957fe5b049450600a5484670de0b6b3a7640000028161348157fe5b600654919004945060009081906001600160a01b038981169116146134a75785876134aa565b86865b60065491935091506001600160a01b038981169116146134df57600a5489670de0b6b3a764000002816134d957fe5b046134f6565b60095489670de0b6b3a764000002816134f457fe5b045b98506000613507838b018584613626565b6006549083039150670de0b6b3a7640000906001600160a01b038b811691161461353357600954613537565b600a545b82028161354057fe5b049450505050506135ce565b60065460009081906001600160a01b0388811691161461356d578486613570565b85855b909250905061359861358b620186a08663ffffffff612bf316565b899063ffffffff612fba16565b97506135b188612e5684620186a063ffffffff612fba16565b6135c1898363ffffffff612fba16565b816135c857fe5b04925050505b95945050505050565b808201828110156108a4576040805162461bcd60e51b815260206004820152601460248201527364732d6d6174682d6164642d6f766572666c6f7760601b604482015290519081900360640190fd5b6000805b60ff8110156136de5782600061364087836136e7565b9050858110156136765760006136568887613737565b828803670de0b6b3a7640000028161366a57fe5b0495909501945061369d565b60006136828887613737565b878303670de0b6b3a7640000028161369657fe5b0490950394505b818511156136bf576001828603116136ba5784935050505061098d565b6136d4565b6001858303116136d45784935050505061098d565b505060010161362a565b50909392505050565b6000670de0b6b3a76400008281858181800204028161370257fe5b04028161370b57fe5b04670de0b6b3a764000080848181800204028161372457fe5b0485028161372e57fe5b04019392505050565b6000670de0b6b3a7640000838181800204028161375057fe5b04670de0b6b3a7640000808480020485600302028161372e57fe5b60405180610100016040528060006001600160a01b0316815260200160006001600160a01b03168152602001600081526020016000815260200160008152602001600081526020016000815260200160008152509056fe43616d656c6f74506169723a20494e53554646494349454e545f4c49515549444954595f4d494e54454443616d656c6f74506169723a206c697175696469747920726174696f206e6f7420696e697469616c697a656443616d656c6f74506169723a2066656550657263656e74206d7573746e27742065786365656420746865206d6178696d756d43616d656c6f74506169723a20494e53554646494349454e545f494e5055545f414d4f554e5443616d656c6f74506169723a2066656550657263656e74206d7573746e27742065786365656420746865206d696e696d756d43616d656c6f74506169723a206f6e6c7920666163746f72792773206f776e657243616d656c6f74506169723a204c4f434b45440000000000000000000000000043616d656c6f74506169723a20494e53554646494349454e545f4c495155494449545943616d656c6f74506169723a20494e53554646494349454e545f4f55545055545f414d4f554e5443616d656c6f74506169723a206f6e6c7920666163746f7279277320666565416d6f756e744f776e6572ddf252ad1be2c89b69c2b068fc378daa952ba7f163c4a11628f55a4df523b3ef6e71edae12b1b97f4d1f60370fef10105fa2faae0126114a169c64845d6126c98c5be1e5ebec7d5bd14f71427d1e84f3dd0314c0f7b2291e5b200ac8c7c3b92543616d656c6f74506169723a20494e53554646494349454e545f4c49515549444954595f4255524e454443616d656c6f74506169723a206f6e6c7920666163746f7279277320736574537461626c654f776e6572a265627a7a723158208a2930b9e3213f16f96922a6640b0edbd6feefcbad22778ed3fa09adb93a794f64736f6c63430005100032454950373132446f6d61696e28737472696e67206e616d652c737472696e672076657273696f6e2c75696e7432353620636861696e49642c6164647265737320766572696679696e67436f6e74726163742943616d656c6f74466163746f72793a204944454e544943414c5f41444452455353455343616d656c6f74466163746f72793a206f776e65724665655368617265206d7573746e277420657863656564206d696e696d756d43616d656c6f74466163746f72793a207a65726f20616464726573730000000043616d656c6f74466163746f72793a206e6f7420736574537461626c654f776e657243616d656c6f74466163746f72793a2063616c6c6572206973206e6f7420746865206f776e657243616d656c6f74466163746f72793a206f776e65724665655368617265206d7573746e277420657863656564206d6178696d756d43616d656c6f74466163746f72793a2072656665727265724665655368617265206d7573746e277420657863656564206d6178696d756da265627a7a72315820428fed2a7c59542eddcaa0707635971b3573f8ab884f77115ef312ab4f41c90864736f6c63430005100032",
  "devdoc": {
    "methods": {
      "setOwnerFeeShare(uint256)": {
        "details": "Updates the share of fees attributed to the owner     * Must only be called by owner"
      },
      "setReferrerFeeShare(address,uint256)": {
        "details": "Updates the share of fees attributed to the given referrer when a swap went through him     * Must only be called by owner"
      }
    }
  },
  "userdoc": {
    "methods": {}
  },
  "storageLayout": {
    "storage": [
      {
        "astId": 7,
        "contract": "contracts/CamelotFactory.sol:CamelotFactory",
        "label": "owner",
        "offset": 0,
        "slot": "0",
        "type": "t_address"
      },
      {
        "astId": 9,
        "contract": "contracts/CamelotFactory.sol:CamelotFactory",
        "label": "feePercentOwner",
        "offset": 0,
        "slot": "1",
        "type": "t_address"
      },
      {
        "astId": 11,
        "contract": "contracts/CamelotFactory.sol:CamelotFactory",
        "label": "setStableOwner",
        "offset": 0,
        "slot": "2",
        "type": "t_address"
      },
      {
        "astId": 13,
        "contract": "contracts/CamelotFactory.sol:CamelotFactory",
        "label": "feeTo",
        "offset": 0,
        "slot": "3",
        "type": "t_address"
      },
      {
        "astId": 19,
        "contract": "contracts/CamelotFactory.sol:CamelotFactory",
        "label": "ownerFeeShare",
        "offset": 0,
        "slot": "4",
        "type": "t_uint256"
      },
      {
        "astId": 26,
        "contract": "contracts/CamelotFactory.sol:CamelotFactory",
        "label": "referrersFeeShare",
        "offset": 0,
        "slot": "5",
        "type": "t_mapping(t_address,t_uint256)"
      },
      {
        "astId": 32,
        "contract": "contracts/CamelotFactory.sol:CamelotFactory",
        "label": "getPair",
        "offset": 0,
        "slot": "6",
        "type": "t_mapping(t_address,t_mapping(t_address,t_address))"
      },
      {
        "astId": 35,
        "contract": "contracts/CamelotFactory.sol:CamelotFactory",
        "label": "allPairs",
        "offset": 0,
        "slot": "7",
        "type": "t_array(t_address)dyn_storage"
      }
    ],
    "types": {
      "t_address": {
        "encoding": "inplace",
        "label": "address",
        "numberOfBytes": "20"
      },
      "t_array(t_address)dyn_storage": {
        "base": "t_address",
        "encoding": "dynamic_array",
        "label": "address[]",
        "numberOfBytes": "32"
      },
      "t_mapping(t_address,t_address)": {
        "encoding": "mapping",
        "key": "t_address",
        "label": "mapping(address => address)",
        "numberOfBytes": "32",
        "value": "t_address"
      },
      "t_mapping(t_address,t_mapping(t_address,t_address))": {
        "encoding": "mapping",
        "key": "t_address",
        "label": "mapping(address => mapping(address => address))",
        "numberOfBytes": "32",
        "value": "t_mapping(t_address,t_address)"
      },
      "t_mapping(t_address,t_uint256)": {
        "encoding": "mapping",
        "key": "t_address",
        "label": "mapping(address => uint256)",
        "numberOfBytes": "32",
        "value": "t_uint256"
      },
      "t_uint256": {
        "encoding": "inplace",
        "label": "uint256",
        "numberOfBytes": "32"
      }
    }
  }
}